{
  "_format": "hh-sol-artifact-1",
  "contractName": "ProfileImageNFT",
  "sourceName": "contracts/MintProfile.sol",
  "abi": [
    {
      "inputs": [],
      "stateMutability": "nonpayable",
      "type": "constructor"
    },
    {
      "anonymous": false,
      "inputs": [
        {
          "indexed": true,
          "internalType": "address",
          "name": "owner",
          "type": "address"
        },
        {
          "indexed": true,
          "internalType": "address",
          "name": "approved",
          "type": "address"
        },
        {
          "indexed": true,
          "internalType": "uint256",
          "name": "tokenId",
          "type": "uint256"
        }
      ],
      "name": "Approval",
      "type": "event"
    },
    {
      "anonymous": false,
      "inputs": [
        {
          "indexed": true,
          "internalType": "address",
          "name": "owner",
          "type": "address"
        },
        {
          "indexed": true,
          "internalType": "address",
          "name": "operator",
          "type": "address"
        },
        {
          "indexed": false,
          "internalType": "bool",
          "name": "approved",
          "type": "bool"
        }
      ],
      "name": "ApprovalForAll",
      "type": "event"
    },
    {
      "anonymous": false,
      "inputs": [
        {
          "indexed": true,
          "internalType": "address",
          "name": "previousOwner",
          "type": "address"
        },
        {
          "indexed": true,
          "internalType": "address",
          "name": "newOwner",
          "type": "address"
        }
      ],
      "name": "OwnershipTransferred",
      "type": "event"
    },
    {
      "anonymous": false,
      "inputs": [
        {
          "indexed": true,
          "internalType": "address",
          "name": "from",
          "type": "address"
        },
        {
          "indexed": true,
          "internalType": "address",
          "name": "to",
          "type": "address"
        },
        {
          "indexed": true,
          "internalType": "uint256",
          "name": "tokenId",
          "type": "uint256"
        }
      ],
      "name": "Transfer",
      "type": "event"
    },
    {
      "inputs": [
        {
          "internalType": "address",
          "name": "to",
          "type": "address"
        },
        {
          "internalType": "uint256",
          "name": "tokenId",
          "type": "uint256"
        }
      ],
      "name": "approve",
      "outputs": [],
      "stateMutability": "nonpayable",
      "type": "function"
    },
    {
      "inputs": [
        {
          "internalType": "address",
          "name": "owner",
          "type": "address"
        }
      ],
      "name": "balanceOf",
      "outputs": [
        {
          "internalType": "uint256",
          "name": "",
          "type": "uint256"
        }
      ],
      "stateMutability": "view",
      "type": "function"
    },
    {
      "inputs": [],
      "name": "getAllToken",
      "outputs": [
        {
          "components": [
            {
              "internalType": "uint256",
              "name": "id",
              "type": "uint256"
            },
            {
              "internalType": "string",
              "name": "uri",
              "type": "string"
            },
            {
              "internalType": "string",
              "name": "space",
              "type": "string"
            }
          ],
          "internalType": "struct ProfileImageNFT.RenderToken[]",
          "name": "",
          "type": "tuple[]"
        }
      ],
      "stateMutability": "view",
      "type": "function"
    },
    {
      "inputs": [
        {
          "internalType": "uint256",
          "name": "tokenId",
          "type": "uint256"
        }
      ],
      "name": "getApproved",
      "outputs": [
        {
          "internalType": "address",
          "name": "",
          "type": "address"
        }
      ],
      "stateMutability": "view",
      "type": "function"
    },
    {
      "inputs": [
        {
          "internalType": "address",
          "name": "owner",
          "type": "address"
        },
        {
          "internalType": "address",
          "name": "operator",
          "type": "address"
        }
      ],
      "name": "isApprovedForAll",
      "outputs": [
        {
          "internalType": "bool",
          "name": "",
          "type": "bool"
        }
      ],
      "stateMutability": "view",
      "type": "function"
    },
    {
      "inputs": [
        {
          "internalType": "address",
          "name": "recipients",
          "type": "address"
        },
        {
          "internalType": "string",
          "name": "_uri",
          "type": "string"
        }
      ],
      "name": "mint",
      "outputs": [
        {
          "internalType": "uint256",
          "name": "",
          "type": "uint256"
        }
      ],
      "stateMutability": "nonpayable",
      "type": "function"
    },
    {
      "inputs": [],
      "name": "name",
      "outputs": [
        {
          "internalType": "string",
          "name": "",
          "type": "string"
        }
      ],
      "stateMutability": "view",
      "type": "function"
    },
    {
      "inputs": [],
      "name": "owner",
      "outputs": [
        {
          "internalType": "address",
          "name": "",
          "type": "address"
        }
      ],
      "stateMutability": "view",
      "type": "function"
    },
    {
      "inputs": [
        {
          "internalType": "uint256",
          "name": "tokenId",
          "type": "uint256"
        }
      ],
      "name": "ownerOf",
      "outputs": [
        {
          "internalType": "address",
          "name": "",
          "type": "address"
        }
      ],
      "stateMutability": "view",
      "type": "function"
    },
    {
      "inputs": [],
      "name": "renounceOwnership",
      "outputs": [],
      "stateMutability": "nonpayable",
      "type": "function"
    },
    {
      "inputs": [
        {
          "internalType": "address",
          "name": "from",
          "type": "address"
        },
        {
          "internalType": "address",
          "name": "to",
          "type": "address"
        },
        {
          "internalType": "uint256",
          "name": "tokenId",
          "type": "uint256"
        }
      ],
      "name": "safeTransferFrom",
      "outputs": [],
      "stateMutability": "nonpayable",
      "type": "function"
    },
    {
      "inputs": [
        {
          "internalType": "address",
          "name": "from",
          "type": "address"
        },
        {
          "internalType": "address",
          "name": "to",
          "type": "address"
        },
        {
          "internalType": "uint256",
          "name": "tokenId",
          "type": "uint256"
        },
        {
          "internalType": "bytes",
          "name": "data",
          "type": "bytes"
        }
      ],
      "name": "safeTransferFrom",
      "outputs": [],
      "stateMutability": "nonpayable",
      "type": "function"
    },
    {
      "inputs": [
        {
          "internalType": "address",
          "name": "operator",
          "type": "address"
        },
        {
          "internalType": "bool",
          "name": "approved",
          "type": "bool"
        }
      ],
      "name": "setApprovalForAll",
      "outputs": [],
      "stateMutability": "nonpayable",
      "type": "function"
    },
    {
      "inputs": [
        {
          "internalType": "bytes4",
          "name": "interfaceId",
          "type": "bytes4"
        }
      ],
      "name": "supportsInterface",
      "outputs": [
        {
          "internalType": "bool",
          "name": "",
          "type": "bool"
        }
      ],
      "stateMutability": "view",
      "type": "function"
    },
    {
      "inputs": [],
      "name": "symbol",
      "outputs": [
        {
          "internalType": "string",
          "name": "",
          "type": "string"
        }
      ],
      "stateMutability": "view",
      "type": "function"
    },
    {
      "inputs": [
        {
          "internalType": "uint256",
          "name": "tokenId",
          "type": "uint256"
        }
      ],
      "name": "tokenURI",
      "outputs": [
        {
          "internalType": "string",
          "name": "",
          "type": "string"
        }
      ],
      "stateMutability": "view",
      "type": "function"
    },
    {
      "inputs": [
        {
          "internalType": "address",
          "name": "from",
          "type": "address"
        },
        {
          "internalType": "address",
          "name": "to",
          "type": "address"
        },
        {
          "internalType": "uint256",
          "name": "tokenId",
          "type": "uint256"
        }
      ],
      "name": "transferFrom",
      "outputs": [],
      "stateMutability": "nonpayable",
      "type": "function"
    },
    {
      "inputs": [
        {
          "internalType": "address",
          "name": "newOwner",
          "type": "address"
        }
      ],
      "name": "transferOwnership",
      "outputs": [],
      "stateMutability": "nonpayable",
      "type": "function"
    }
  ],
  "bytecode": "0x60806040523480156200001157600080fd5b506040518060400160405280600f81526020017f50726f66696c65496d6167654e465400000000000000000000000000000000008152506040518060400160405280600381526020017f50494e0000000000000000000000000000000000000000000000000000000000815250816000908051906020019062000096929190620001a6565b508060019080519060200190620000af929190620001a6565b505050620000d2620000c6620000d860201b60201c565b620000e060201b60201c565b620002bb565b600033905090565b6000600660009054906101000a900473ffffffffffffffffffffffffffffffffffffffff16905081600660006101000a81548173ffffffffffffffffffffffffffffffffffffffff021916908373ffffffffffffffffffffffffffffffffffffffff1602179055508173ffffffffffffffffffffffffffffffffffffffff168173ffffffffffffffffffffffffffffffffffffffff167f8be0079c531659141344cd1fd0a4f28419497f9722a3daafe3b4186f6b6457e060405160405180910390a35050565b828054620001b49062000256565b90600052602060002090601f016020900481019282620001d8576000855562000224565b82601f10620001f357805160ff191683800117855562000224565b8280016001018555821562000224579182015b828111156200022357825182559160200191906001019062000206565b5b50905062000233919062000237565b5090565b5b808211156200025257600081600090555060010162000238565b5090565b600060028204905060018216806200026f57607f821691505b602082108114156200028657620002856200028c565b5b50919050565b7f4e487b7100000000000000000000000000000000000000000000000000000000600052602260045260246000fd5b612b4b80620002cb6000396000f3fe608060405234801561001057600080fd5b50600436106101165760003560e01c806385e3c1d4116100a2578063b88d4fde11610071578063b88d4fde146102cd578063c87b56dd146102e9578063d0def52114610319578063e985e9c514610349578063f2fde38b1461037957610116565b806385e3c1d4146102575780638da5cb5b1461027557806395d89b4114610293578063a22cb465146102b157610116565b806323b872dd116100e957806323b872dd146101b557806342842e0e146101d15780636352211e146101ed57806370a082311461021d578063715018a61461024d57610116565b806301ffc9a71461011b57806306fdde031461014b578063081812fc14610169578063095ea7b314610199575b600080fd5b61013560048036038101906101309190611ceb565b610395565b60405161014291906121a0565b60405180910390f35b610153610477565b60405161016091906121bb565b60405180910390f35b610183600480360381019061017e9190611d3d565b610509565b6040516101909190612117565b60405180910390f35b6101b360048036038101906101ae9190611caf565b61054f565b005b6101cf60048036038101906101ca9190611b55565b610667565b005b6101eb60048036038101906101e69190611b55565b6106c7565b005b61020760048036038101906102029190611d3d565b6106e7565b6040516102149190612117565b60405180910390f35b61023760048036038101906102329190611af0565b610799565b604051610244919061239d565b60405180910390f35b610255610851565b005b61025f610865565b60405161026c919061217e565b60405180910390f35b61027d6109a4565b60405161028a9190612117565b60405180910390f35b61029b6109ce565b6040516102a891906121bb565b60405180910390f35b6102cb60048036038101906102c69190611c1f565b610a60565b005b6102e760048036038101906102e29190611ba4565b610a76565b005b61030360048036038101906102fe9190611d3d565b610ad8565b60405161031091906121bb565b60405180910390f35b610333600480360381019061032e9190611c5b565b610bcb565b604051610340919061239d565b60405180910390f35b610363600480360381019061035e9190611b19565b610c02565b60405161037091906121a0565b60405180910390f35b610393600480360381019061038e9190611af0565b610c96565b005b60007f80ac58cd000000000000000000000000000000000000000000000000000000007bffffffffffffffffffffffffffffffffffffffffffffffffffffffff1916827bffffffffffffffffffffffffffffffffffffffffffffffffffffffff1916148061046057507f5b5e139f000000000000000000000000000000000000000000000000000000007bffffffffffffffffffffffffffffffffffffffffffffffffffffffff1916827bffffffffffffffffffffffffffffffffffffffffffffffffffffffff1916145b80610470575061046f82610d1a565b5b9050919050565b60606000805461048690612601565b80601f01602080910402602001604051908101604052809291908181526020018280546104b290612601565b80156104ff5780601f106104d4576101008083540402835291602001916104ff565b820191906000526020600020905b8154815290600101906020018083116104e257829003601f168201915b5050505050905090565b600061051482610d84565b6004600083815260200190815260200160002060009054906101000a900473ffffffffffffffffffffffffffffffffffffffff169050919050565b600061055a826106e7565b90508073ffffffffffffffffffffffffffffffffffffffff168373ffffffffffffffffffffffffffffffffffffffff1614156105cb576040517f08c379a00000000000000000000000000000000000000000000000000000000081526004016105c29061233d565b60405180910390fd5b8073ffffffffffffffffffffffffffffffffffffffff166105ea610dcf565b73ffffffffffffffffffffffffffffffffffffffff161480610619575061061881610613610dcf565b610c02565b5b610658576040517f08c379a000000000000000000000000000000000000000000000000000000000815260040161064f906122bd565b60405180910390fd5b6106628383610dd7565b505050565b610678610672610dcf565b82610e90565b6106b7576040517f08c379a00000000000000000000000000000000000000000000000000000000081526004016106ae9061237d565b60405180910390fd5b6106c2838383610f25565b505050565b6106e283838360405180602001604052806000815250610a76565b505050565b6000806002600084815260200190815260200160002060009054906101000a900473ffffffffffffffffffffffffffffffffffffffff169050600073ffffffffffffffffffffffffffffffffffffffff168173ffffffffffffffffffffffffffffffffffffffff161415610790576040517f08c379a00000000000000000000000000000000000000000000000000000000081526004016107879061231d565b60405180910390fd5b80915050919050565b60008073ffffffffffffffffffffffffffffffffffffffff168273ffffffffffffffffffffffffffffffffffffffff16141561080a576040517f08c379a00000000000000000000000000000000000000000000000000000000081526004016108019061229d565b60405180910390fd5b600360008373ffffffffffffffffffffffffffffffffffffffff1673ffffffffffffffffffffffffffffffffffffffff168152602001908152602001600020549050919050565b61085961118c565b610863600061120a565b565b6060600061087360076112d0565b905060008167ffffffffffffffff8111156108b7577f4e487b7100000000000000000000000000000000000000000000000000000000600052604160045260246000fd5b6040519080825280602002602001820160405280156108f057816020015b6108dd6118f3565b8152602001906001900390816108d55790505b50905060005b82811161099b57610906816112de565b1561098857600061091682610ad8565b905060405180606001604052808381526020018281526020016040518060200160405280600081525081525083838151811061097b577f4e487b7100000000000000000000000000000000000000000000000000000000600052603260045260246000fd5b6020026020010181905250505b808061099390612664565b9150506108f6565b50809250505090565b6000600660009054906101000a900473ffffffffffffffffffffffffffffffffffffffff16905090565b6060600180546109dd90612601565b80601f0160208091040260200160405190810160405280929190818152602001828054610a0990612601565b8015610a565780601f10610a2b57610100808354040283529160200191610a56565b820191906000526020600020905b815481529060010190602001808311610a3957829003601f168201915b5050505050905090565b610a72610a6b610dcf565b838361134a565b5050565b610a87610a81610dcf565b83610e90565b610ac6576040517f08c379a0000000000000000000000000000000000000000000000000000000008152600401610abd9061237d565b60405180910390fd5b610ad2848484846114b7565b50505050565b6060610ae3826112de565b610b22576040517f08c379a0000000000000000000000000000000000000000000000000000000008152600401610b199061235d565b60405180910390fd5b6000600860008481526020019081526020016000208054610b4290612601565b80601f0160208091040260200160405190810160405280929190818152602001828054610b6e90612601565b8015610bbb5780601f10610b9057610100808354040283529160200191610bbb565b820191906000526020600020905b815481529060010190602001808311610b9e57829003601f168201915b5050505050905080915050919050565b600080610bd860076112d0565b9050610be48482611513565b610bee81846116ed565b610bf86007611719565b8091505092915050565b6000600560008473ffffffffffffffffffffffffffffffffffffffff1673ffffffffffffffffffffffffffffffffffffffff16815260200190815260200160002060008373ffffffffffffffffffffffffffffffffffffffff1673ffffffffffffffffffffffffffffffffffffffff16815260200190815260200160002060009054906101000a900460ff16905092915050565b610c9e61118c565b600073ffffffffffffffffffffffffffffffffffffffff168173ffffffffffffffffffffffffffffffffffffffff161415610d0e576040517f08c379a0000000000000000000000000000000000000000000000000000000008152600401610d05906121fd565b60405180910390fd5b610d178161120a565b50565b60007f01ffc9a7000000000000000000000000000000000000000000000000000000007bffffffffffffffffffffffffffffffffffffffffffffffffffffffff1916827bffffffffffffffffffffffffffffffffffffffffffffffffffffffff1916149050919050565b610d8d816112de565b610dcc576040517f08c379a0000000000000000000000000000000000000000000000000000000008152600401610dc39061231d565b60405180910390fd5b50565b600033905090565b816004600083815260200190815260200160002060006101000a81548173ffffffffffffffffffffffffffffffffffffffff021916908373ffffffffffffffffffffffffffffffffffffffff160217905550808273ffffffffffffffffffffffffffffffffffffffff16610e4a836106e7565b73ffffffffffffffffffffffffffffffffffffffff167f8c5be1e5ebec7d5bd14f71427d1e84f3dd0314c0f7b2291e5b200ac8c7c3b92560405160405180910390a45050565b600080610e9c836106e7565b90508073ffffffffffffffffffffffffffffffffffffffff168473ffffffffffffffffffffffffffffffffffffffff161480610ede5750610edd8185610c02565b5b80610f1c57508373ffffffffffffffffffffffffffffffffffffffff16610f0484610509565b73ffffffffffffffffffffffffffffffffffffffff16145b91505092915050565b8273ffffffffffffffffffffffffffffffffffffffff16610f45826106e7565b73ffffffffffffffffffffffffffffffffffffffff1614610f9b576040517f08c379a0000000000000000000000000000000000000000000000000000000008152600401610f929061221d565b60405180910390fd5b600073ffffffffffffffffffffffffffffffffffffffff168273ffffffffffffffffffffffffffffffffffffffff16141561100b576040517f08c379a00000000000000000000000000000000000000000000000000000000081526004016110029061225d565b60405180910390fd5b61101683838361172f565b611021600082610dd7565b6001600360008573ffffffffffffffffffffffffffffffffffffffff1673ffffffffffffffffffffffffffffffffffffffff16815260200190815260200160002060008282546110719190612517565b925050819055506001600360008473ffffffffffffffffffffffffffffffffffffffff1673ffffffffffffffffffffffffffffffffffffffff16815260200190815260200160002060008282546110c891906124c1565b92505081905550816002600083815260200190815260200160002060006101000a81548173ffffffffffffffffffffffffffffffffffffffff021916908373ffffffffffffffffffffffffffffffffffffffff160217905550808273ffffffffffffffffffffffffffffffffffffffff168473ffffffffffffffffffffffffffffffffffffffff167fddf252ad1be2c89b69c2b068fc378daa952ba7f163c4a11628f55a4df523b3ef60405160405180910390a4611187838383611734565b505050565b611194610dcf565b73ffffffffffffffffffffffffffffffffffffffff166111b26109a4565b73ffffffffffffffffffffffffffffffffffffffff1614611208576040517f08c379a00000000000000000000000000000000000000000000000000000000081526004016111ff906122fd565b60405180910390fd5b565b6000600660009054906101000a900473ffffffffffffffffffffffffffffffffffffffff16905081600660006101000a81548173ffffffffffffffffffffffffffffffffffffffff021916908373ffffffffffffffffffffffffffffffffffffffff1602179055508173ffffffffffffffffffffffffffffffffffffffff168173ffffffffffffffffffffffffffffffffffffffff167f8be0079c531659141344cd1fd0a4f28419497f9722a3daafe3b4186f6b6457e060405160405180910390a35050565b600081600001549050919050565b60008073ffffffffffffffffffffffffffffffffffffffff166002600084815260200190815260200160002060009054906101000a900473ffffffffffffffffffffffffffffffffffffffff1673ffffffffffffffffffffffffffffffffffffffff1614159050919050565b8173ffffffffffffffffffffffffffffffffffffffff168373ffffffffffffffffffffffffffffffffffffffff1614156113b9576040517f08c379a00000000000000000000000000000000000000000000000000000000081526004016113b09061227d565b60405180910390fd5b80600560008573ffffffffffffffffffffffffffffffffffffffff1673ffffffffffffffffffffffffffffffffffffffff16815260200190815260200160002060008473ffffffffffffffffffffffffffffffffffffffff1673ffffffffffffffffffffffffffffffffffffffff16815260200190815260200160002060006101000a81548160ff0219169083151502179055508173ffffffffffffffffffffffffffffffffffffffff168373ffffffffffffffffffffffffffffffffffffffff167f17307eab39ab6107e8899845ad3d59bd9653f200f220920489ca2b5937696c31836040516114aa91906121a0565b60405180910390a3505050565b6114c2848484610f25565b6114ce84848484611739565b61150d576040517f08c379a0000000000000000000000000000000000000000000000000000000008152600401611504906121dd565b60405180910390fd5b50505050565b600073ffffffffffffffffffffffffffffffffffffffff168273ffffffffffffffffffffffffffffffffffffffff161415611583576040517f08c379a000000000000000000000000000000000000000000000000000000000815260040161157a906122dd565b60405180910390fd5b61158c816112de565b156115cc576040517f08c379a00000000000000000000000000000000000000000000000000000000081526004016115c39061223d565b60405180910390fd5b6115d86000838361172f565b6001600360008473ffffffffffffffffffffffffffffffffffffffff1673ffffffffffffffffffffffffffffffffffffffff168152602001908152602001600020600082825461162891906124c1565b92505081905550816002600083815260200190815260200160002060006101000a81548173ffffffffffffffffffffffffffffffffffffffff021916908373ffffffffffffffffffffffffffffffffffffffff160217905550808273ffffffffffffffffffffffffffffffffffffffff16600073ffffffffffffffffffffffffffffffffffffffff167fddf252ad1be2c89b69c2b068fc378daa952ba7f163c4a11628f55a4df523b3ef60405160405180910390a46116e960008383611734565b5050565b80600860008481526020019081526020016000209080519060200190611714929190611914565b505050565b6001816000016000828254019250508190555050565b505050565b505050565b600061175a8473ffffffffffffffffffffffffffffffffffffffff166118d0565b156118c3578373ffffffffffffffffffffffffffffffffffffffff1663150b7a02611783610dcf565b8786866040518563ffffffff1660e01b81526004016117a59493929190612132565b602060405180830381600087803b1580156117bf57600080fd5b505af19250505080156117f057506040513d601f19601f820116820180604052508101906117ed9190611d14565b60015b611873573d8060008114611820576040519150601f19603f3d011682016040523d82523d6000602084013e611825565b606091505b5060008151141561186b576040517f08c379a0000000000000000000000000000000000000000000000000000000008152600401611862906121dd565b60405180910390fd5b805181602001fd5b63150b7a0260e01b7bffffffffffffffffffffffffffffffffffffffffffffffffffffffff1916817bffffffffffffffffffffffffffffffffffffffffffffffffffffffff1916149150506118c8565b600190505b949350505050565b6000808273ffffffffffffffffffffffffffffffffffffffff163b119050919050565b60405180606001604052806000815260200160608152602001606081525090565b82805461192090612601565b90600052602060002090601f0160209004810192826119425760008555611989565b82601f1061195b57805160ff1916838001178555611989565b82800160010185558215611989579182015b8281111561198857825182559160200191906001019061196d565b5b509050611996919061199a565b5090565b5b808211156119b357600081600090555060010161199b565b5090565b60006119ca6119c5846123dd565b6123b8565b9050828152602081018484840111156119e257600080fd5b6119ed8482856125bf565b509392505050565b6000611a08611a038461240e565b6123b8565b905082815260208101848484011115611a2057600080fd5b611a2b8482856125bf565b509392505050565b600081359050611a4281612ab9565b92915050565b600081359050611a5781612ad0565b92915050565b600081359050611a6c81612ae7565b92915050565b600081519050611a8181612ae7565b92915050565b600082601f830112611a9857600080fd5b8135611aa88482602086016119b7565b91505092915050565b600082601f830112611ac257600080fd5b8135611ad28482602086016119f5565b91505092915050565b600081359050611aea81612afe565b92915050565b600060208284031215611b0257600080fd5b6000611b1084828501611a33565b91505092915050565b60008060408385031215611b2c57600080fd5b6000611b3a85828601611a33565b9250506020611b4b85828601611a33565b9150509250929050565b600080600060608486031215611b6a57600080fd5b6000611b7886828701611a33565b9350506020611b8986828701611a33565b9250506040611b9a86828701611adb565b9150509250925092565b60008060008060808587031215611bba57600080fd5b6000611bc887828801611a33565b9450506020611bd987828801611a33565b9350506040611bea87828801611adb565b925050606085013567ffffffffffffffff811115611c0757600080fd5b611c1387828801611a87565b91505092959194509250565b60008060408385031215611c3257600080fd5b6000611c4085828601611a33565b9250506020611c5185828601611a48565b9150509250929050565b60008060408385031215611c6e57600080fd5b6000611c7c85828601611a33565b925050602083013567ffffffffffffffff811115611c9957600080fd5b611ca585828601611ab1565b9150509250929050565b60008060408385031215611cc257600080fd5b6000611cd085828601611a33565b9250506020611ce185828601611adb565b9150509250929050565b600060208284031215611cfd57600080fd5b6000611d0b84828501611a5d565b91505092915050565b600060208284031215611d2657600080fd5b6000611d3484828501611a72565b91505092915050565b600060208284031215611d4f57600080fd5b6000611d5d84828501611adb565b91505092915050565b6000611d7283836120a2565b905092915050565b611d838161254b565b82525050565b6000611d948261244f565b611d9e818561247d565b935083602082028501611db08561243f565b8060005b85811015611dec5784840389528151611dcd8582611d66565b9450611dd883612470565b925060208a01995050600181019050611db4565b50829750879550505050505092915050565b611e078161255d565b82525050565b6000611e188261245a565b611e22818561248e565b9350611e328185602086016125ce565b611e3b8161273a565b840191505092915050565b6000611e5182612465565b611e5b818561249f565b9350611e6b8185602086016125ce565b611e748161273a565b840191505092915050565b6000611e8a82612465565b611e9481856124b0565b9350611ea48185602086016125ce565b611ead8161273a565b840191505092915050565b6000611ec56032836124b0565b9150611ed08261274b565b604082019050919050565b6000611ee86026836124b0565b9150611ef38261279a565b604082019050919050565b6000611f0b6025836124b0565b9150611f16826127e9565b604082019050919050565b6000611f2e601c836124b0565b9150611f3982612838565b602082019050919050565b6000611f516024836124b0565b9150611f5c82612861565b604082019050919050565b6000611f746019836124b0565b9150611f7f826128b0565b602082019050919050565b6000611f976029836124b0565b9150611fa2826128d9565b604082019050919050565b6000611fba603e836124b0565b9150611fc582612928565b604082019050919050565b6000611fdd6020836124b0565b9150611fe882612977565b602082019050919050565b60006120006020836124b0565b915061200b826129a0565b602082019050919050565b60006120236018836124b0565b915061202e826129c9565b602082019050919050565b60006120466021836124b0565b9150612051826129f2565b604082019050919050565b6000612069601d836124b0565b915061207482612a41565b602082019050919050565b600061208c602e836124b0565b915061209782612a6a565b604082019050919050565b60006060830160008301516120ba60008601826120f9565b50602083015184820360208601526120d28282611e46565b915050604083015184820360408601526120ec8282611e46565b9150508091505092915050565b612102816125b5565b82525050565b612111816125b5565b82525050565b600060208201905061212c6000830184611d7a565b92915050565b60006080820190506121476000830187611d7a565b6121546020830186611d7a565b6121616040830185612108565b81810360608301526121738184611e0d565b905095945050505050565b600060208201905081810360008301526121988184611d89565b905092915050565b60006020820190506121b56000830184611dfe565b92915050565b600060208201905081810360008301526121d58184611e7f565b905092915050565b600060208201905081810360008301526121f681611eb8565b9050919050565b6000602082019050818103600083015261221681611edb565b9050919050565b6000602082019050818103600083015261223681611efe565b9050919050565b6000602082019050818103600083015261225681611f21565b9050919050565b6000602082019050818103600083015261227681611f44565b9050919050565b6000602082019050818103600083015261229681611f67565b9050919050565b600060208201905081810360008301526122b681611f8a565b9050919050565b600060208201905081810360008301526122d681611fad565b9050919050565b600060208201905081810360008301526122f681611fd0565b9050919050565b6000602082019050818103600083015261231681611ff3565b9050919050565b6000602082019050818103600083015261233681612016565b9050919050565b6000602082019050818103600083015261235681612039565b9050919050565b600060208201905081810360008301526123768161205c565b9050919050565b600060208201905081810360008301526123968161207f565b9050919050565b60006020820190506123b26000830184612108565b92915050565b60006123c26123d3565b90506123ce8282612633565b919050565b6000604051905090565b600067ffffffffffffffff8211156123f8576123f761270b565b5b6124018261273a565b9050602081019050919050565b600067ffffffffffffffff8211156124295761242861270b565b5b6124328261273a565b9050602081019050919050565b6000819050602082019050919050565b600081519050919050565b600081519050919050565b600081519050919050565b6000602082019050919050565b600082825260208201905092915050565b600082825260208201905092915050565b600082825260208201905092915050565b600082825260208201905092915050565b60006124cc826125b5565b91506124d7836125b5565b9250827fffffffffffffffffffffffffffffffffffffffffffffffffffffffffffffffff0382111561250c5761250b6126ad565b5b828201905092915050565b6000612522826125b5565b915061252d836125b5565b9250828210156125405761253f6126ad565b5b828203905092915050565b600061255682612595565b9050919050565b60008115159050919050565b60007fffffffff0000000000000000000000000000000000000000000000000000000082169050919050565b600073ffffffffffffffffffffffffffffffffffffffff82169050919050565b6000819050919050565b82818337600083830152505050565b60005b838110156125ec5780820151818401526020810190506125d1565b838111156125fb576000848401525b50505050565b6000600282049050600182168061261957607f821691505b6020821081141561262d5761262c6126dc565b5b50919050565b61263c8261273a565b810181811067ffffffffffffffff8211171561265b5761265a61270b565b5b80604052505050565b600061266f826125b5565b91507fffffffffffffffffffffffffffffffffffffffffffffffffffffffffffffffff8214156126a2576126a16126ad565b5b600182019050919050565b7f4e487b7100000000000000000000000000000000000000000000000000000000600052601160045260246000fd5b7f4e487b7100000000000000000000000000000000000000000000000000000000600052602260045260246000fd5b7f4e487b7100000000000000000000000000000000000000000000000000000000600052604160045260246000fd5b6000601f19601f8301169050919050565b7f4552433732313a207472616e7366657220746f206e6f6e20455243373231526560008201527f63656976657220696d706c656d656e7465720000000000000000000000000000602082015250565b7f4f776e61626c653a206e6577206f776e657220697320746865207a65726f206160008201527f6464726573730000000000000000000000000000000000000000000000000000602082015250565b7f4552433732313a207472616e736665722066726f6d20696e636f72726563742060008201527f6f776e6572000000000000000000000000000000000000000000000000000000602082015250565b7f4552433732313a20746f6b656e20616c7265616479206d696e74656400000000600082015250565b7f4552433732313a207472616e7366657220746f20746865207a65726f2061646460008201527f7265737300000000000000000000000000000000000000000000000000000000602082015250565b7f4552433732313a20617070726f766520746f2063616c6c657200000000000000600082015250565b7f4552433732313a2061646472657373207a65726f206973206e6f74206120766160008201527f6c6964206f776e65720000000000000000000000000000000000000000000000602082015250565b7f4552433732313a20617070726f76652063616c6c6572206973206e6f7420746f60008201527f6b656e206f776e6572206e6f7220617070726f76656420666f7220616c6c0000602082015250565b7f4552433732313a206d696e7420746f20746865207a65726f2061646472657373600082015250565b7f4f776e61626c653a2063616c6c6572206973206e6f7420746865206f776e6572600082015250565b7f4552433732313a20696e76616c696420746f6b656e2049440000000000000000600082015250565b7f4552433732313a20617070726f76616c20746f2063757272656e74206f776e6560008201527f7200000000000000000000000000000000000000000000000000000000000000602082015250565b7f55524920646f6573206e6f74206578697374206f6e2074686174204944000000600082015250565b7f4552433732313a2063616c6c6572206973206e6f7420746f6b656e206f776e6560008201527f72206e6f7220617070726f766564000000000000000000000000000000000000602082015250565b612ac28161254b565b8114612acd57600080fd5b50565b612ad98161255d565b8114612ae457600080fd5b50565b612af081612569565b8114612afb57600080fd5b50565b612b07816125b5565b8114612b1257600080fd5b5056fea264697066735822122074f57fe863731cd1fb8cf7b25e3617c74871a8a7d328548b872f3565db4e28a364736f6c63430008020033",
  "linkReferences": {},
  "deployedLinkReferences": {}
}